:10000E0025642C2564002020202020000000000004
:04001E0000000000DE
:0E083200C109810200810300810100810000E4
:0908210012082A12082A12082A02
:07082A000000007F18DFFE53
:0108310022A4
:0C0841007F017ED87D23DDFEDEFCDFFAA7
:01084D002288
:1007FD00D28212082AC282120841D282120821D254
:02080D00822245
:10072800E47804F2FD7C02208206AF040CEF70F737
:10073800120821E4FE3082010E7C02308206AF04EA
:100748000CEF70F7EC6401600D7804E225E0F24EDE
:0A075800F20DEDB408CF7804E2FFC3
:010762002274
:10063F001207FDC2AF20824F7F02208206AE070F46
:10064F00EE70F77F02308206AE070FEE70F71207DB
:10065F0028787CEFF2120728A907120728AB071298
:10066F000728AA07120728D282787CE2FE292B2AB4
:10067F00B50714786DEEF2AF0118EFF2AF0318EF74
:09068F00F2AF027869EFF2D2AF7C
:01069800223F
:09084E00007F0B7EBEDEFEDFFC24
:01085700227E
:0407B800AD07AC06D7
:1007BC00E4FBFAC3EB9DEA9C500A12084E0BBB00FB
:0407CC00010A80EFAF
:0107D0002206
:1007D10075985053890F438920758BFD758DFDD216
:0607E1008ED2ACD2AF2263
:10080F0074011204BD120477C394644004E412040B
:02081F00DF22D6
:080003002009FDD2098F9922AA
:1006E200787CEBF208EAF208E9F208ECF2FE08ED97
:0206F200F2FF15
:1006F400E4FDFCD3EF9400EE94004027787CE2FB09
:1007040008E2FA08E2F90DEDAE0470010C14F5826A
:100714008E83120490FF120003D37880E29D18E2C6
:030724009C50D90D
:0107270022AF
:1007E700438E805389F0438901758ACD758CD4D2A5
:0607F7008CD2A9D2AF2252
:1005BC00786E7C007DFE7BFF7A0079147E007F06CE
:1005CC0012045178747C007DFE7BFF7A00791A7ED0
:1005DC00007F081204511207E71207D112063F7868
:1005EC007F74FFF2087400F208740EF2786BE2FF6D
:1005FC007882E4F208EFF2786DE2FF7884E4F20896
:10060C00EFF27BFE7A00796E1200827BFE7A007923
:10061C006E7D067C001206E27801E2FF7803E2B5FB
:10062C0007087800E2B40102E4F27FDC7E051207D1
:03063C00B880A9DA
:0300230002069939
:0B069900C0E0C083C082C0D075D00854
:1006A40030982BC298AF997803E22405F8EFF27BD7
:1006B400FE7A00790312080F7801E2FF7803E2B5AD
:1006C4000F077A00790112080F78027414F2309936
:0506D40004C299C209F7
:0906D900D0D0D082D083D0E032F1
:03000B0002076386
:10076300C0E0C0D075D0087802E2D394004014E210
:1007730014F2E2700E18E2FF7803E26F600578006E
:0E0783007401F2758ACD758CD4D0D0D0E032DE
:03000000020530C6
:0C053000787FE4F6D8FD75812102057784
:10038100E709F608DFFA8046E709F208DFFA803E5E
:1003910088828C83E709F0A3DFFA8032E309F6084B
:1003A100DFFA8078E309F208DFFA807088828C83B3
:1003B100E309F0A3DFFA806489828A83E0A3F60867
:1003C100DFFA805889828A83E0A3F208DFFA804C41
:1003D10080D280FA80C680D4806980F28033801018
:1003E10080A680EA809A80A880DA80E280CA803381
:1003F10089828A83ECFAE493A3C8C582C8CCC583F9
:10040100CCF0A3C8C582C8CCC583CCDFE9DEE780C8
:100411000D89828A83E493A3F608DFF9ECFAA9F047
:10042100EDFB2289828A83ECFAE0A3C8C582C8CC9D
:10043100C583CCF0A3C8C582C8CCC583CCDFEADEB6
:10044100E880DB89828A83E493A3F208DFF980CC18
:1004510088F0EF60010E4E60C388F0ED2402B40411
:100461000050B9F582EB2402B4040050AF232345B8
:0604710082239003D17309
:10047700BB010689828A83E0225002E722BBFE0283
:09048700E32289828A83E49322B6
:10049000BB010CE58229F582E5833AF583E0225021
:1004A00006E92582F8E622BBFE06E92582F8E2226B
:0D04B000E58229F582E5833AF583E4932285
:1004BD00BB010989828A83F8E028F022500327F7CF
:1004CD0022BBFE05F8E328F3228A838982F8E493A0
:0204DD002822D3
:1004DF00BB010689828A83F0225002F722BBFE01FC
:0204EF00F322F6
:10002600E510247FF8E2051022787C300702787FFD
:10003600E475F0011204F10204772000EB7F2ED262
:10004600008018EF540F2490D43440D4FF30040BB2
:10005600EF24BFB41A0050032461FFE511600215B6
:10006600110514E5147002051330070D787CE4754C
:10007600F0011204F1EF0204DF0207917403D207C4
:100086008003E4C207F510787C120501E4F511F54A
:1000960013F514E51160077F2012006180F57512D3
:1000A600FFC201C200C202C203C205C206C20812D2
:1000B600002FFF700D3007057F00120072AF14AEDF
:1000C6001322B4255FC2D5C20412002FFF24D0B478
:1000D6000A00501A75F00A781130D50508B6FF01E6
:1000E60006C6A426F620D5047002D20380D924CFF2
:1000F600B41A00EF5004C2E5D204020271D20180A4
:10010600C6D20080C0D20280BCD2D580BAD20580C9
:10011600B47F201200612002077401B5110040F17E
:10012600120026FF120061020099D208D2068095BD
:10013600120026FB120026FA120026F94A4B700618
:1001460079427A037BFF20022EE511602A7E008E1B
:100156008275830012049060060EEE651270F0C27E
:10016600D5EBC0E0EAC0E0E9C0E0EE1202B8D0E0AC
:10017600F9D0E0FAD0E0FB120477FF60AAEBC0E00A
:10018600EAC0E0E9C0E0120061D0E02401F9D0E065
:100196003400FAD0E0FBE5120460DCD512D9808782
:1001A6007BFF7A0279B4D202809C791080027908AA
:1001B600C206C2088008D2D5790A8004790AC2D557
:1001C600E512047002F512E4FAFDFEFF120026FCA9
:1001D6007B08200113120026FD7B1030000A120056
:1001E60026FE120026FF7B20EC3382D592D55013D3
:1001F600C3E43000069FFFE49EFEE42001039DFD5C
:10020600E49CFCE4CBF8C201EC700CCFCECDCCE87C
:1002160024F8F870F38017C3EF33FFEE33FEED33A7
:10022600FDEC33FCEB33FB994002FB0FD8E9EB30D6
:100236000105F8D0E0C448B201C0E00AEC4D4E4FCB
:1002460078207B0070C2EAB5120040BCC0E0120202
:10025600BAD0F0D0E0200104C4C0E0C4B201C0F0BE
:1002660012004AD0F0D5F0EB02009912050A0136C9
:100276005301B05801074C01034201B44F01BC447D
:1002860001BC49011C4301C25501A64601A6450110
:01029600A6C1
:1002970047036250010B2D010F2E01322B0113234F
:1002A700013020034B2A00CB480000012A3F3F3F83
:1002B70000790AA2D5200314300509B910020404F5
:1002C700B9080104A2D52006025001042002689251
:1002D70002B511005034C0E07F203003197F30A2EF
:1002E7000272067205500F120311C202C206C2053E
:1002F700C2087F30800F300503E9C0E0120061308B
:100307000503D0E0F9D0E0B511CC3005177F30B93F
:10031700100C1200617F583004077F788003B908FA
:10032700031200613002057F2D0200617F20200843
:10033700F87F2B2006F322920280CF286E756C6C13
:100347002900D2011200263001F8C201781130D5F8
:100357000108F60200CB2D5043495812002624030A
:10036700B405004001E490035D93120052743A1201
:0A0377000052D2037511040201B018
:10053C000205BCE493A3F8E493A34003F68001F214
:10054C0008DFF48029E493A3F85407240CC8C333C0
:10055C00C4540F4420C8834004F456800146F6DF8F
:10056C00E4800B0102040810204080900832E47EE5
:10057C00019360BCA3FF543F30E509541FFEE49384
:10058C00A360010ECF54C025E060A840B8E493A34B
:10059C00FAE493A3F8E493A3C8C582C8CAC583CA76
:1005AC00F0A3C8C582C8CAC583CADFE9DEE780BE2E
:0108400000B7
:1004F100FAE2FB0808E2F925F0F218E2CA3AF22220
:09050100EBF208EAF208E9F2222B
:10050A00D083D082F8E4937012740193700DA3A380
:10051A0093F8740193F5828883E473740293686094
:06052A00EFA3A3A380DF94
:10079100EFB40A07740D12079C740A309811A899D6
:1007A100B8130CC2983098FDA899C298B811F630C8
:0707B10099FDC299F59922A0
:00000001FF
